:020000040000FA
:100000000B2807100130880087146C2387106C239D
:020010000B28BB
:040012000034003482
:0A00160083120313850183160317FC
:100020008801890183160313F0308500860187015A
:100030008801890103138312871007102A30C10039
:100040002A30C2002A30C3002A30C4002A30C5003A
:100050002A30C6002A30C7002A30C8003730B30023
:100060003030B4003830B5003730B6003430B70027
:100070003730B8003330B9003430C00007100130D9
:10008000880087146C2387106C230C308800871439
:100090006C2387106C233C30880087146C238710F6
:1000A0006C2341308400302100308515051A313031
:1000B000851A3230051B33308511C900491A892051
:1000C00000300515051A3430851A3530051B3630D9
:1000D0000511C900491A892000308514051A3730E6
:1000E000851A3830051B39308510C900491A892016
:1000F00000300514051A8520851A3030051B8D2027
:100100000510C900491A8920532884032A30800029
:10011000080049088000840A08003308C106411815
:100120001E21C1181E2141191E21C1191E21411A6B
:100130001E21C11A1E21411B1E21C11B1E21340874
:10014000C20642181E21C2181E2142191E21C219C0
:100150001E21421A1E21C21A1E21421B1E21C21B31
:100160001E213508C30643181E21C3181E2143193A
:100170001E21C3191E21431A1E21C31A1E21431B0F
:100180001E21C31B1E213608C40644181E21C41894
:100190001E2144191E21C4191E21441A1E21C41AED
:1001A0001E21441B1E21C41B1E213708C5064518ED
:1001B0001E21C5181E2145191E21C5191E21451ACB
:1001C0001E21C51A1E21451B1E21C51B1E213808D4
:1001D000C60646181E21C6181E2146191E21C6191C
:1001E0001E21461A1E21C61A1E21461B1E21C61B91
:1001F0001E213908C70647181E21C7181E21471996
:100200001E21C7191E21471A1E21C71A1E21471B6E
:100210001E21C71B1E214008C80648181E21C818E9
:100220001E2148191E21C8191E21481A1E21C81A4C
:100230001E21481B1E21C81B1E212721071001302B
:10024000880087146C2387106C23B6222529071099
:100250000130880087146C2387106C23FC212E2921
:1002600007106C2380308800672307146C237C30D0
:100270008800672307106C238430880067230714E5
:100280006C23330888006723340888006723350807
:1002900088006723360888006723370888006723AB
:1002A00038088800672339088800672340088800D9
:1002B000672307106C238F308800672307146C2393
:1002C0007C308800672307106C23C03088006723C8
:1002D00007146C237C308800672307106C23C2301E
:1002E0008800672307146C234930880067236E3029
:1002F0008800672374308800672372308800672382
:100300002E30880067232030880067236330880000
:1003100067236C308800672361308800672376305C
:10032000880067236530880067233A308800672398
:1003300007106C23CF308800672307146C237C30B0
:100340008800672307106C23903088006723071408
:100350006C237C308800672307106C23943088005E
:10036000672307146C23410888006723420888002C
:1003700067234308880067234408880067234508EB
:10038000880067234608880067234708880067239A
:1003900048088800672307106C239F308800672374
:1003A00007146C237C308800672307106C23D0303F
:1003B0008800672307146C237C30880067230710AC
:1003C0006C23D6308800672307146C2330308800F4
:1003D00067235F30880067236F308800672307102A
:1003E0006C23DF308800672307146C237C3088007F
:1003F000672300308900080007106C2380308800D4
:10040000672307146C23F3308800672307106C23DD
:1004100084308800672307146C234C3088006723DE
:1004200061308800672320308800672363308800AC
:1004300067236C308800672361308800672376303B
:100440008800672365308800672307106C238F308E
:100450008800672307146C23F33088006723071094
:100460006C23C0308800672307146C23F3308800A6
:10047000672307106C23C3308800672307146C239D
:100480006530880067237330880067232030880038
:1004900067236330880067236F30880067237230DA
:1004A00088006723723088006723653088006723DF
:1004B00063308800672374308800672361308800C8
:1004C000672307106C23CF308800672307146C2341
:1004D000F3308800672307106C239030880067236F
:1004E00007146C23F3308800672307106C239630C1
:1004F0008800672307146C2330308800672320307E
:10050000880067236F308800672307106C239F30B3
:100510008800672307146C23F330880067230710D3
:100520006C23D0308800672307146C23F3308800D5
:10053000672307106C23D6308800672307146C23C9
:100540002D30880067235530880067232D308800C0
:10055000672307106C23DF308800672307146C23A0
:10056000F3308800672301308900080007106C23EE
:1005700080308800672307146C23F43088006723D9
:1005800007106C2384308800672307146C234C30D9
:100590008800672361308800672320308800672344
:1005A0006330880067236C308800672361308800DF
:1005B000672376308800672365308800672307103B
:1005C0006C238F308800672307146C23F430880075
:1005D000672307106C23C0308800672307146C233F
:1005E000F4308800672307106C23C4308800672329
:1005F00007146C23653088006723733088006723F5
:1006000074308800672361308800672320308800B9
:1006100067236D30880067236130880067236C3062
:100620008800672307106C23CF30880067230714E6
:100630006C23F4308800672307106C239030880007
:10064000672307146C23F4308800672307106C239A
:1006500096308800672307146C23303088006723A6
:100660002030880067236F308800672307106C23D1
:100670009F308800672307146C23F43088006723B9
:1006800007106C23D0308800672307146C23F430E4
:100690008800672307106C23D6308800672307146F
:1006A0006C232D3088006723F430880067232D30B9
:1006B0008800672307106C23DF3088006723071446
:1006C0006C23F43088006723023089000800871407
:1006D0006C2387106C230800B0010A30B100503041
:1006E000B000B00B712BB10B6F2B08000A30B000BB
:1006F0005030B100FA30B20000000000B20B7C2B89
:0A070000B10B7A2BB00B782B080028
:02400E00F42C90
:02401000FF3F70
:00000001FF
